:020000040800F2
:100000000080002001140008C1080008C30800088F
:10001000C5080008C7080008C9080008000000005B
:10002000000000000000000000000000CB080008F5
:10003000CD08000800000000CF080008D108000823
:1000400051140008511400085114000851140008FC
:1000500051140008511400085114000851140008EC
:1000600051140008511400085114000851140008DC
:1000700051140008511400085114000851140008CC
:100080005114000851140008511400080000000029
:1000900000000000000000000000000051140008F3
:1000A000511400085114000851140008511400089C
:1000B00000000000000000000000000051140008D3
:1000C000511400085114000851140008511400087C
:1000D00051140008511400085114000800000000D9
:1000E0005114000851140008000000000000000036
:1000F0000000000000000000000000005114000893
:100100000000000000000000511400080000000082
:100110000000000000000000511400080000000072
:10012000511400085114000851140008511400081B
:100130005114000800000000000000000000000052
:1001400000000000000000000000000000000000AF
:1001500051140008511400085114000851140008EB
:10016000000000000000000000000000000000008F
:10017000000000000000000000000000000000007F
:100180005114000851140008000000000000000095
:1001900000000000511400080000000000000000F2
:1001A000000000000000000000000000000000004F
:1001B00000000000000000000000000051140008D2
:0801C00051140008511400085D
:1001C80010B5054C237833B9044B13B10448AFF389
:1001D80000800123237010BD0C00002000000000E7
:1001E8005414000808B5034B1BB103490348AFF387
:1001F800008008BD00000000100000205414000812
:1002080053B94AB9002908BF00281CBF4FF0FF3175
:100218004FF0FF3000F074B9ADF1080C6DE904CE71
:1002280000F006F8DDF804E0DDE9022304B07047C9
:100238002DE9F047089D04468E46002B4DD18A4291
:10024800944669D9B2FA82F252B101FA02F3C2F1C4
:10025800200120FA01F10CFA02FC41EA030E944055
:100268004FEA1C48210CBEFBF8F61FFA8CF708FB76
:1002780016E341EA034306FB07F199420AD91CEB4E
:10028800030306F1FF3080F01F81994240F21C8180
:10029800023E63445B1AA4B2B3FBF8F008FB1033C8
:1002A80044EA034400FB07F7A7420AD91CEB0404FD
:1002B80000F1FF3380F00A81A74240F207816444CD
:1002C800023840EA0640E41B00261DB1D440002352
:1002D800C5E900433146BDE8F0878B4209D9002DB6
:1002E80000F0EF800026C5E9000130463146BDE840
:1002F800F087B3FA83F6002E4AD18B4202D38242AA
:1003080000F2F980841A61EB030301209E46002D58
:10031800E0D0C5E9004EDDE702B9FFDEB2FA82F2AD
:10032800002A40F09280A1EB0C014FEA1C471FFA0B
:100338008CFE0126200CB1FBF7F307FB131140EAF2
:1003480001410EFB03F0884208D91CEB010103F1BF
:10035800FF3802D2884200F2CB804346091AA4B281
:10036800B1FBF7F007FB101144EA01440EFB00FE55
:10037800A64508D91CEB040400F1FF3102D2A645BA
:1003880000F2BB800846A4EB0E0440EA03409CE759
:10039800C6F12007B34022FA07FC4CEA030C20FA06
:1003A80007F401FA06F31C43F9404FEA1C4900FA26
:1003B80006F3B1FBF9F8200C1FFA8CFE09FB1811A3
:1003C80040EA014108FB0EF0884202FA06F20BD916
:1003D8001CEB010108F1FF3A80F08880884240F266
:1003E8008580A8F102086144091AA4B2B1FBF9F0AA
:1003F80009FB101144EA014100FB0EFE8E4508D9A5
:100408001CEB010100F1FF346CD28E456AD9023829
:10041800614440EA0840A0FB0294A1EB0E01A1420E
:10042800C846A64656D353D05DB1B3EB080261EB7C
:100438000E0101FA07F722FA06F3F1401F43C5E956
:10044800007100263146BDE8F087C2F12003D8408C
:100458000CFA02FC21FA03F3914001434FEA1C47CE
:100468001FFA8CFEB3FBF7F007FB10360B0C43EAC0
:10047800064300FB0EF69E4204FA02F408D91CEB70
:10048800030300F1FF382FD29E422DD9023863446E
:100498009B1B89B2B3FBF7F607FB163341EA03410E
:1004A80006FB0EF38B4208D91CEB010106F1FF385D
:1004B80016D28B4214D9023E6144C91A46EA004654
:1004C80038E72E46284605E70646E3E61846F8E6E6
:1004D8004B45A9D2B9EB020864EB0C0E0138A3E72F
:1004E8004646EAE7204694E74046D1E7D0467BE710
:1004F800023B614432E7304609E76444023842E788
:10050800704700BF70B50D4D0D4C641BA41000263C
:10051800A64209D10B4D0C4C00F098FF641BA410A7
:100528000026A64205D170BD55F8043B9847013610
:10053800EEE755F8043B98470136F2E78C140008BB
:100548008C1400088C140008901400080244034618
:10055800934200D1704703F8011BF9E730B58BB01F
:100568000024059406940794089409940194224B56
:100578001A6B42F004021A631A6B02F00402019229
:10058800019A02941A6B42F080021A631A6B02F005
:1005980080020292029A03941A6B42F001021A63D3
:1005A8001A6B02F001020392039A04941A6B42F048
:1005B80002021A631B6B03F002030493049B0F4DA2
:1005C80022462021284600F011FB4FF400530593E2
:1005D8004FF404130693079405A9094800F032FA6A
:1005E80020230593012306930794089405A9284618
:1005F80000F028FA0BB030BD00380240000002407D
:100608000008024072B6FEE708B50A480A4B0360C4
:100618004FF4E133436000238360C36003610C221D
:1006280042618361C36100F0B7FE00B908BDFFF7FE
:10063800E9FF00BF280000200010014008B50A4863
:100648000A4B03604FF4E133436000238360C360C7
:1006580003610C2242618361C36100F09DFE00B911
:1006680008BDFFF7CFFF00BF6C000020004400402A
:1006780008B50A480A4B03604FF4E133436000238E
:100688008360C36003610C2242618361C36100F02F
:1006980083FE00B908BDFFF7B5FF00BFB00000201A
:1006A8000014014000B595B03422002107A8FFF7D7
:1006B8004DFF00230293039304930593069300933D
:1006C8001E4A116C41F080511164126C02F0805284
:1006D8000092009A01931A4A116841F4404111604E
:1006E800126802F440420192019A02220792012103
:1006F8000A9110210B910D920E930F914FF4A8734C
:100708001093042311931293139207A800F0B4FBDB
:1007180080B90F23029302210391002304934FF41D
:1007280080520592069302A800F0D0FA20B915B0BD
:100738005DF804FBFFF766FFFFF764FF003802402F
:100748000070004008B500F0F3F8FFF7ABFFFFF7C3
:1007580005FFFFF759FFFFF771FFFFF789FFFEE776
:1007680000B583B0002100910C4B5A6C42F48042D2
:100778005A645A6C02F480420092009A01911A6CF1
:1007880042F080521A641B6C03F080530193019B62
:10079800072000F0F9F803B05DF804FB00380240C8
:1007A80000B58DB000230793089309930A930B9320
:1007B80003683B4A934208D03A4A934229D03A4ABE
:1007C800934249D00DB05DF804FB00210191374BED
:1007D8005A6C42F010025A645A6C02F010020192EC
:1007E800019A02911A6B42F001021A631B6B03F023
:1007F80001030293029B4FF4C063079302230893FB
:1008080003230A9307230B9307A9294800F01AF931
:10081800D8E700210391254B1A6C42F400321A6480
:100828001A6C02F400320392039A04911A6B42F094
:1008380001021A631B6B03F001030493049B0C234E
:1008480007930223089303230A9307230B9307A90B
:10085800174800F0F7F8B5E700210591134B5A6CDB
:1008680042F020025A645A6C02F020020592059A5E
:1008780006911A6B42F004021A631B6B03F004031F
:100888000693069BC02307930223089303230A9326
:1008980008230B9307A9074800F0D4F892E700BF94
:1008A800001001400044004000140140003802409C
:1008B8000000024000080240FEE7FEE7FEE7FEE710
:1008C800FEE770477047704708B500F04BF808BD61
:1008D800034AD2F8883043F47003C2F8883070476E
:1008E80000ED00E010B504460E4B18784FF47A730B
:1008F800B3FBF0F30C4A1068B0FBF3F000F08EF88D
:1009080068B90F2C01D901200AE0002221464FF0D6
:10091800FF3000F04BF8054B1C60002000E0012080
:1009280010BD00BF040000200000002008000020C7
:1009380008B50B4B1A6842F400721A601A6842F440
:1009480080621A601A6842F480721A60032000F00C
:100958001BF80020FFF7C6FFFFF702FF002008BDC5
:10096800003C0240034A1168034B1B780B44136098
:10097800704700BFF400002004000020014B1868F5
:10098800704700BFF4000020074AD36823F4E063EF
:100998001B041B0C000200F4E060034343F0BF6338
:1009A80043F40033D360704700ED00E000B5194B05
:1009B800DB68C3F30223C3F1070CBCF1040F28BFA3
:1009C8004FF0040C03F1040EBEF1060F18D9033BD7
:1009D8004FF0FF3E0EFA0CFC21EA0C0199400EFA8A
:1009E80003F322EA0303194300280BDB0901C9B208
:1009F80000F1604000F5614080F800135DF804FBE9
:100A08000023E5E700F00F000901C9B2024B1954B1
:100A1800F4E700BF00ED00E014ED00E00138B0F1AC
:100A2800807F0BD24FF0E0235861054AF02182F80D
:100A380023100020986107221A617047012070472F
:100A480000ED00E000230F2B00F2C68070B582B0E5
:100A580060E085685E000324B44025EA0405CC689C
:100A6800B4402C438460456825EA02054C68C4F309
:100A780000129A402A4342605AE0DC08083450F8D1
:100A8800246003F0070295000F22AA4026EA020E0E
:100A98000A69AA4042EA0E0240F824205CE00222D9
:100AA80000E0002202FA0EF22A4302344B4D45F8C8
:100AB80024204B4A94686FEA0C0224EA0C054E681D
:100AC80016F4801F01D04CEA0405454CA560E46883
:100AD80002EA04054E6816F4001F01D04CEA04052A
:100AE8003F4CE560646802EA04054E6816F4003F6E
:100AF80001D04CEA04053A4C6560246822404D68F0
:100B080015F4803F01D04CEA0402354C22600133D1
:100B18000F2B5FD801229A400C6804EA020C32EAD3
:100B28000404F4D14C6804F00304013C012C90D96E
:100B38004A6802F00302032A09D0C4685D00032250
:100B4800AA4024EA02048A68AA402243C2604A688A
:100B580002F00302022A90D004684FEA430E0322EF
:100B680002FA0EF224EA02044A6802F0030202FAC8
:100B78000EF2224302604A6812F4403FC7D00022B6
:100B88000192184A546C44F480445464526C02F440
:100B980080420192019A9C08A51C104A52F82550DF
:100BA80003F003024FEA820E0F2202FA0EF225EA40
:100BB80002050D4A90423FF474AF02F580629042FC
:100BC80006D002F5806290423FF469AF072269E7D8
:100BD800012267E702B070BD704700BF00380140CE
:100BE800003C014000380240000002400AB1816127
:100BF800704709048161704708B5314B9B6803F061
:100C08000C03042B57D0082B57D12D4B5A6802F0F0
:100C18003F025B6813F4800F2AD0294B5968C1F34F
:100C2800881C4FEA4C11B1EB0C006EEB0E0E4FEA2C
:100C38008E1343EA90638101091A63EB0E03DB000C
:100C480043EA5173C90011EB0C0C43F1000359023C
:100C580000234FEA4C2041EADC51FFF7D1FA184B48
:100C68005B68C3F3014301335B00B0FBF3F025E09D
:100C7800134B5968C1F3881C4FEA4C11B1EB0C00B7
:100C88006EEB0E0E4FEA8E1343EA90638101091A48
:100C980063EB0E03DB0043EA5173C90011EB0C0C44
:100CA80043F10003990200234FEA8C2041EA9C514A
:100CB800FFF7A6FAD3E7034800E0034808BD00BFE2
:100CC8000038024000127A000024F400002800F0E6
:100CD8009B8070B50D4604464F4B1B6803F0070315
:100CE8008B4208D2CBB24C4A1370136803F0070347
:100CF8008B4240F08B80236813F0020F17D013F05B
:100D0800040F04D0454A936843F4E0539360236882
:100D180013F0080F04D0414A936843F4604393608A
:100D28003E4A936823F0F003A1680B43936023685D
:100D380013F0010F32D06368012B21D09A1E012ACB
:100D480025D9364A126812F0020F61D033498A68F1
:100D580022F0030213438B60FFF710FE06462F4B69
:100D68009B6803F00C036268B3EB820F16D0FFF7A1
:100D780005FE801B41F288339842F0D9032042E0F7
:100D8800264A126812F4003FE0D101203BE0234AD2
:100D9800126812F0007FD9D1012034E01E4B1B6885
:100DA80003F00703AB4207D9EAB21B4B1A701B6862
:100DB80003F00703AB422DD1236813F0040F06D0CC
:100DC800164A936823F4E053E1680B439360236861
:100DD80013F0080F07D0114A936823F46043216980
:100DE80043EAC1039360FFF707FF0C4B9B68C3F30B
:100DF80003130B4AD35CD8400A4B18600A4B186897
:100E0800FFF770FD002070BD012070470120FAE750
:100E18000120F8E70120F6E7003C024000380240D4
:100E28006C1400080000002008000020014B18681E
:100E3800704700BF0000002008B5FFF7F7FF044B1C
:100E48009B68C3F38223034AD35CD84008BD00BF24
:100E5800003802407C14000808B5FFF7E7FF044B90
:100E68009B68C3F34233034AD35CD84008BD00BF34
:100E7800003802407C140008002800F0E98170B5B1
:100E880082B00446036813F0010F3BD09F4B9B6868
:100E980003F00C03042B2CD09C4B9B6803F00C0331
:100EA800082B21D06368B3F5803F4FD0B3F5A02F4E
:100EB80052D0964B1A6822F480321A601A6822F4CB
:100EC80080221A606368002B50D0FFF757FD054653
:100ED8008E4B1B6813F4003F14D1FFF74FFD401BE6
:100EE8006428F5D90320BAE1884B5B6813F4800FB6
:100EF800D8D0864B1B6813F4003F03D06368002BDF
:100F080000F0A881236813F0020F54D07F4B9B6830
:100F180013F00C0F3ED07D4B9B6803F00C03082B9D
:100F280033D0E368002B68D0794B01221A60FFF7B1
:100F380025FD0546754B1B6813F0020F54D1FFF7CA
:100F48001DFD401B0228F5D9032088E16F4A13686C
:100F580043F480331360B5E76C4B1A6842F480227F
:100F68001A601A6842F480321A60ABE7FFF706FD90
:100F78000546664B1B6813F4003FC3D0FFF7FEFC21
:100F8800401B6428F5D9032069E1604B5B6813F4C2
:100F9800800FC6D15D4B1B6813F0020F03D0E368C6
:100FA800012B40F05981594A136823F0F80321694D
:100FB80043EAC1031360236813F0080F42D0636942
:100FC8006BB3534B0122C3F8802EFFF7D7FC0546BD
:100FD8004E4B5B6F13F0020F34D1FFF7CFFC401B71
:100FE8000228F5D903203AE1484A136823F0F803A8
:100FF800216943EAC1031360DDE7454B00221A600B
:10100800FFF7BCFC0546414B1B6813F0020FD2D01A
:10101800FFF7B4FC401B0228F5D903201FE13C4B25
:101028000022C3F8802EFFF7A9FC0546374B5B6FFB
:1010380013F0020F06D0FFF7A1FC401B0228F5D9D8
:1010480003200CE1236813F0040F77D02F4B1B6C9F
:1010580013F0805F33D1002301932C4B1A6C42F0BC
:1010680080521A641B6C03F080530193019B012585
:10107800284B1B6813F4807F23D0A368012B34D03E
:10108800052B38D0214B1A6F22F001021A671A6F0C
:1010980022F004021A67A368002B3DD0FFF76EFC0C
:1010A80006461A4B1B6F13F0020F46D1FFF766FC7A
:1010B800801B41F288339842F3D90320CFE0002502
:1010C800D6E7144A136843F480731360FFF756FC9D
:1010D8000646104B1B6813F4807FCED1FFF74EFCF9
:1010E800801B0228F5D90320B9E0084A136F43F0A2
:1010F80001031367CFE7054B1A6F42F004021A6722
:101108001A6F42F001021A67C5E700BF00380240B3
:101118000000474200700040FFF730FC0646584B7D
:101128001B6F13F0020F08D0FFF728FC801B41F259
:1011380088339842F3D9032091E0EDB9A369002BD5
:1011480000F08C804E4A926802F00C02082A54D0B3
:10115800022B17D04B4B00221A66FFF70FFC0446F0
:10116800474B1B6813F0007F45D0FFF707FC001BB7
:101178000228F5D9032072E0414A136C23F080530A
:101188001364DBE73F4B00221A66FFF7F7FB0546BF
:101198003B4B1B6813F0007F06D0FFF7EFFB401BAB
:1011A8000228F5D903205AE0E369226A1343626AE8
:1011B80043EA8213A26A5208013A43EA0243E26A06
:1011C80043EA0263226B43EA02732D4A53602D4BB4
:1011D80001221A66FFF7D2FB0446294B1B6813F05D
:1011E800007F06D1FFF7CAFB001B0228F5D90320B0
:1011F80035E0002033E0002031E0012B31D0204BD6
:101208005B6803F48001E26991422CD103F03F024C
:10121800216A8A4229D1616A47F6C0721A40B2EB44
:10122800811F24D103F44031A26A5208013AB1EB7C
:10123800024F1ED103F07062E16AB2EB016F1AD15E
:1012480003F0E043226BB3EB027F16D1002006E0E7
:1012580001207047012002E0012000E0002002B0D8
:1012680070BD0120FBE70120F9E70120F7E7012025
:10127800F5E70120F3E70120F1E70120EFE700BFE0
:10128800003802400000474238B504460268136936
:1012980023F44053C1680B43136183680269134305
:1012A80042691343C2691A430168CB6823F41643A1
:1012B80023F00C031343CB600268536923F4407393
:1012C80081690B4353610368314A934206D002F5A2
:1012D8008062934202D0FFF7AFFD01E0FFF7BCFD4B
:1012E800E369B3F5004F29D00021031849411B18C1
:1012F80041F10001C90041EA5371DB001818636825
:101308004FEA83024FEA937341F10001FEF778FF39
:10131800204DA5FB00325109642303FB11031B0177
:101328003233A5FB03235B0903F0F00202EB011241
:1013380003F00F03216813448B6038BD00230218A3
:1013480043EB0301121841F10001C90041EA52714F
:10135800D200101841F10001626892185B41FEF753
:101368004FFF0C4DA5FB00325109642303FB110309
:10137800DB003233A5FB03235B095A0002F4F87241
:1013880002EB011203F00703216813448B60D4E7D2
:10139800001001401F85EB5158B310B5044690F872
:1013A8003D300BB3242384F83D302268D36823F4FE
:1013B8000053D3602046FFF767FF2268136923F4C0
:1013C800904313612268536923F02A03536122680A
:1013D800D36843F40053D36000202064202384F8AA
:1013E8003D3084F83E3010BD80F83C30FFF7D8F926
:1013F800D8E7012070470000DFF834D00D480E49C7
:101408000E4A002302E0D458C4500433C4188C4256
:10141800F9D30B4A0B4C002301E013600432A242BB
:10142800FBD3FFF755FAFFF76DF8FFF78BF9704715
:1014380000800020000000200C0000209414000808
:101448000C000020F8000020FEE70000F8B500BFFF
:10145800F8BC08BC9E467047F8B500BFF8BC08BC8D
:041468009E467047E5
:10146C000000000000000000010203040607080948
:08147C0000000000010203045E
:08148400B4EDFF7F0100000040
:04148C00ED01000866
:04149000C901000886
:0C1494000024F400010000001000000023
:0400000508001401DA
:00000001FF
